:080000000C9443000C94DF0096
:100008000C9400000C9400000C9497000C940000D1
:100018000C9400000C9400000C9400000C947000E8
:100028000C9400000C9400000C9400000C94000048
:100038000C9400000C9400000C9400000C94000038
:100048000C9400000C9400000C94000000000000C8
:1000580000003F065B4F666D7D077F67FEFDFBF77F
:10006800EFDFBF7F01000200540004000A005600C1
:100078000A0060015A0008006A0164000000F89450
:10008800EE27ECBBF1E0FBBFEBBFE5BF8DE0A2E0E4
:10009800BB27ED938A95E9F780E094E0A0E6ED931D
:1000A8000197E9F7ECE6F0E085919591009761F00A
:1000B800A591B59105901590BF01F00105900D929D
:1000C8000197E1F7FB01F0CFEFE5EDBFE4E0EEBF0C
:1000D800C0E6D1E00C9418010A921A92FA926A9337
:1000E8007A938A939A93AA93BA93EA93FA93EFB777
:1000F800EA93F60131966F01E4E1F0E0EC15FD05B5
:1001080021F421FE0CD1CC24DD24E991EFBFF99133
:10011800E991B991A9919991899179916991F99008
:100128001990099018950A921A929A93AA93BA93D9
:10013800EA93FA93EFB7EA93EAE0F0E04E165F0627
:100148007CF453D23CF0A0E6B1E0A40DB51DEC91CF
:10015800E068E8BB4AD21CF4E0916001E8BB17C034
:1001680044D254F0D201EAE0F0E00E948003E05A61
:10017800FE4FE081E068E8BB38D24CF4D201EAE0F7
:10018800F0E00E947B03E05AFE4FE081E8BBEAE022
:10019800F0E0EA15FB0511F4AA24BB24F501319619
:1001A8005F01E991EFBFF991E991B991A99199910D
:1001B800199009901895EA93FA93EFB7EA93839BFD
:1001C80003C0662477242BC0849B09C0E3E0F0E0D9
:1001D800E815F90519F0E1E0F0E03F0120C0859B42
:1001E80009C0E4E0F0E0E815F90519F0E2E0F0E014
:1001F8003F0115C0869B09C0E1E0F0E0E815F9056C
:1002080019F0E3E0F0E03F010AC0879B08C0E2E094
:10021800F0E0E815F90519F0E4E0F0E03F01E991B4
:10022800EFBFF991E9911895EFEFEABBE0E0EBBB7E
:10023800EFEFE7BBE0E0E8BBEFEFE4BBE0E0E5BBF6
:10024800E1E0E1BBE0E0E2BBE4E0E3BFE0E0E2BF25
:10025800ECBFE2BDE1E0E5BDE0E0E4BDE3BDE1E423
:10026800E9BFEBB7E064EBBFE3E0E5BFE0E0E4BF84
:10027800E0E4EABF789406D021FC02C033D1FCCF79
:10028800FACFFFCF0E94B00300E010E00031E0E0B9
:100298001E07ACF420E030E02830E0E03E0764F4CC
:1002A800F801A8D1DF01F901AAD1E0E0F0E0ED936F
:1002B800FC932F5F3F4FF0CF0F5F1F4FE7CFE894BE
:1002C80021F820F866247724882499244424552486
:1002D800E1E0E0937201E5E0E0937301E1E0E0938F
:1002E8007601E0937701E0937401E0917701E09360
:1002F800750101E010E00038E0E01E0764F4F80141
:1003080083D1EFEF84D1AE0FBF1F1196EFEFEC93BF
:100318000F5F1F4FF0CF0E94B703249608951A93DA
:100328000A93062C072809F48FC0EFE7F0E0E415DC
:10033800F50519F4689421F820F8F20165D1EC91DB
:10034800E09374016BD170D1E093750182010024B0
:1003580000160106C4F4F8016CD1EA0FFB1F0F0167
:10036800F801319751D1EC91D00151D1EA0FFB1F1F
:1003780031960F01F80131975CD156D1D001EC9339
:1003880001501040E4CFF301E130A0E0FA0749F44E
:10039800E1E0F0E04F01E0917601EF5FE093760154
:1003A80028C0E230A0E0FA0751F4E2E0F0E04F01A3
:1003B800E0917701EF5FE0937701E1501AC0E330F5
:1003C800A0E0FA0749F4E3E0F0E04F01E09176019C
:1003D800E150E09376010DC0E430A0E0FA0749F45B
:1003E800E4E0F0E04F01E0917701E150E09377011C
:1003F800EF5F2DD001E010E040165106ACF0F80197
:1004080003D1EC91A0917601EA1739F4F80111D1E2
:100418000BD1A0917701EA1709F003C0689421F87D
:1004280013C00F5F1F4FE8CFA0917601A03050F0A6
:10043800A03140F4A0917701A03020F0A09177017D
:10044800A83010F0689421F809911991089522971D
:10045800E0E0E883E9830E94AE03E0917201A09195
:100468007601EA1731F4A0917701E0917301EA1758
:1004780009F021C0E3D020D0E2B7F0E0DF01F601B7
:100488000E946303A7E0B0E00E948E03E09372012C
:10049800E2B7F0E0A7E0B0E00E948E03E0937301BA
:1004A800E0917201F0E0A6D0DF01E0917301F0E085
:1004B800A6D0D1D00CF395C0F20131962F01AED061
:1004C800EA0FFB1FA0917401A083A8D0AE0FBF1F35
:1004D8001196E0917501EC93EFEFE0937401E093CE
:1004E8007501089502D03ED00895E0917401F0E0BE
:1004F800FA93EA93E0917501F0E0FA93EA93A0E0A9
:10050800B0E00FD0E0917201F0E0FA93EA93E09145
:100518007301F0E0FA93EA93A2E0B0E002D08ED043
:100528000895BA93AA93AD81AA235AF0AC81BD81EC
:1005380050973CF4AB81AA2322F0AA81BB8118977B
:100548000CF00EC0EC81FD8155D0DF01EA81FB8102
:10055800EE0FFF1FEA0FFB1FA881B981A083B183AB
:100568002696089522970E94AE0340E050E0483056
:10057800E0E05E07B4F520E030E010E02830E0E08D
:100588003E0784F4F90136D0DF01FA0138D063D090
:100598001CF4E1E0F0E002C0E0E0F0E061D02F5FA1
:1005A8003F4FECCF909864D020E030E010E0283046
:1005B800E0E03E078CF4F90138961CD0DF01FA011F
:1005C8001ED049D01CF4E1E0F0E002C0E0E0F0E029
:1005D80047D02F5F3F4FEBCF909A4AD04F5F5F4F86
:1005E800C6CF0E94B50328960895E5E0F0E0EA1525
:1005F800FB0508950E945203EA58FD4F0895EE0F37
:10060800FF1FAE0FBF1F0895A6E7B1E0F8CFEC9328
:10061800F801A6E7B1E0EE0FFF1F0895F201A6E783
:10062800B1E0EE0FFF1F0895AE0FBF1F1196EC91BA
:100638000895A6E7B1E0EE0FFF1F0895E091760157
:10064800F0E0FA93EA93E0917701F0E0FA93EA9305
:10065800A1E0B0E066CF0E94A6030E94AA03089515
:10066800EE83FF83E22FAE810E944A031E2B08957A
:10067800E0E0EBBBAAE6B1E0A40FB51FEC91E5BB47
:100688001BBB0895F195E195F0400895EE230E2ED9
:10069800EA2F19F0EE0F0A94E9F70895EE0FFF1FFD
:1006A800EE0FFF1FEE0FFF1FEE0FFF1F0895FA9FBB
:1006B800F02DEB9FF00DEA9FE02DF10D089534D059
:1006C800F6DF0EF4DFDF08950024112490E1AA0F6D
:1006D800BB1F001C111C0E1A1F0A18F40E0E1F1E39
:1006E80001C0A1609A9599F7FD01D00108951CD029
:1006F800EBDF0EF4C7DF0895E894B7FF04C0A095B8
:10070800B09511966894F7FDBDDFDEDFFD010EF4AC
:10071800B9DF0895E894F7FF02C0B4DF6894EA23CC
:10072800FB230EF4AFDF0895E894F7FF02C0AADFB9
:100738006894B7FF06C0A095B095119600F8039489
:1007480000FA0895ED91FC911197089500240E1672
:100758000F0608955A934A933A932A931A930A9341
:1007680008955D814C813B812A8119810881089512
:00000001FF
